:100000000C942A000C9447000C9447000C94470071
:100010000C9447000C9447000C9447000C94470044
:100020000C9447000C9447000C9447000C94470034
:100030000C9447000C9447000C9447000C94470024
:100040000C94D8000C9447000C9447000C94470083
:100050000C94470011241FBECFE5D8E0DEBFCDBF12
:1000600010E0A0E6B0E0ECE3F8E002C005900D92ED
:10007000AE37B107D9F720E0AEE7B0E001C01D927E
:10008000A238B207E1F70E94E9000C941C040C941A
:100090000000811114C0949800008FEC97E0019744
:1000A000F1F700C00000959888B38F7088BB88B3C3
:1000B000607F682B68BB969A000096980895949A82
:1000C000EBCFCF93DF93D82FC62F8FE697E1019721
:1000D000F1F700C00000607F8D2F0E9449006C2F57
:1000E0006295607F8D2F0E944900DF91CF91089526
:1000F00087B3806F87BB88B38F7088BB81B38067FD
:1001000081BB82B38F7882BB2FEF80E792E02150D2
:1001100080409040E1F700C0000068E280E00E946B
:1001200061006CE080E00E94610061E080E00E947C
:1001300061000895823068F4603158F4811106C07E
:1001400060580E94610081E090E00895605480E072
:10015000F8CF90E080E00895682F81E00E94610070
:1001600008950F931F93CF93DF938B0160E00E945C
:100170009A00E8010F5E1F4F8991882319F0C0177C
:10018000D10729F4DF91CF911F910F9108950E941B
:10019000AC00F2CF8FEB8ABB80E48BBB88E886B9DA
:1001A000789487B1856E87B9089585B190E00895F8
:1001B0008F939F9385B190E090938100809380000E
:1001C00081E090E090937F0080937E009F918F91DB
:1001D0001895CDB7DEB7A8970FB6F894DEBF0FBE5F
:1001E000CDBF0E9478000E94CA002FEF31E14AE79C
:1001F000215030404040E1F700C0000090E080E036
:100200002EE6E22E20E0F22E9E012F5F3F4F690185
:1002100030E6A32E30E0B32E8E010B5E1F4F369AD0
:1002200020917E0030917F004C014FEF841A940A98
:10023000232B31F120918000309181009F938F9387
:100240003F932F93BF92AF921F930F930E9453013E
:10025000B80181E00E94B10010927F0010927E00F0
:100260000FB6F894DEBF0FBECDBF9FEF21EE34E096
:10027000915020403040E1F700C00000C401CFCFD2
:100280009F938F93FF92EF92DF92CF920E94530140
:10029000B60180E00E94B1000F900F900F900F9078
:1002A0000F900F90E2CFAEE0B0E0E9E5F1E00C9402
:1002B000F3030D891E8986E08C831A8309838FEFEF
:1002C0009FE79E838D83AE01475E5F4F6F89788D78
:1002D000CE0101960E9476012F813885020F131FEF
:1002E000F80110822E96E4E00C940F04ABE0B0E02D
:1002F000ECE7F1E00C94E5037C013B018A01FC0191
:1003000017821682838181FFB9C19AE0292ECE011E
:1003100001965C01F7019381F30193FD859193FFB1
:1003200081913F01882309F446C1853239F493FD58
:10033000859193FF81913F01853229F4B70190E0C7
:100340000E945703E7CF912C412C512CFFE1F5156A
:1003500038F08B3209F188F4803201F1833221F1D7
:1003600057FC3AC020ED280F2A3040F556FE1FC03A
:10037000929C200D1124922E06C08D3291F0803374
:1003800079F7689450F8F30193FD859193FF81917B
:100390003F018111DBCF20C0689451F8689452F876
:1003A000F2CF689453F8EFCF689454F8ECCF429CA6
:1003B000200D1124422E689455F8E5CF8E3229F491
:1003C00056FCF9C0689456F8DECF8C3619F4689460
:1003D00057F8D9CF8836B9F2982F9F7D955493302E
:1003E000C0F08336A1F18337C1F1833509F05BC0DA
:1003F000F801C190D1908F01692D70E056FC02C0C8
:100400006FEF7FEFC6010E9441034C01689457F8DB
:100410000AC00C5F1F4F2FE3298388248394912CFB
:100420006501E89457F853FC04C04814190409F016
:1004300018F5342C8114910431F5332009F46ACF76
:10044000B70180E290E00E9457033A94F6CFF8019A
:10045000808189830E5F1F4FE0CFF801C190D1905A
:100460008F01692D70E056FC02C06FEF7FEFC6016F
:100470000E944C034C01D5CFB70180E290E00E946E
:1004800057034A94D2CFF60157FC859157FE8191CC
:100490006F01B70190E00E94570331103A94F1E0E8
:1004A0008F1A9108C7CF843619F0893609F074C0C5
:1004B000F80157FE6AC061917191819191918F010C
:1004C000252D2F76D22E97FF09C090958095709597
:1004D00061957F4F8F4F9F4F6894D7F82AE030E0A7
:1004E000A5010E948703C82ECA188C2C5D2CD6FE4D
:1004F0000CC0E89450F8C91440F4D4FE05C0D2FCF6
:1005000003C0FD2DFE7E5F2E892C54FE8FC0FE01A0
:10051000EC0DF11D8081803309F081C0252D297EED
:10052000522E852D8870382E53FC8FC050FE89C006
:100530009C2C841418F44C0C942C981854FE8BC0EA
:10054000B70180E390E00E94570352FE09C088E79C
:1005500090E051FE02C088E590E0B7010E94570389
:10056000C91408F484C0CA94D12C9FEFC91AD90ABF
:10057000CA0CDB1CF60182916F01B70190E00E946A
:100580005703AC14BD04B1F758CF61917191072E98
:10059000000C880B990B93CFD52CE894D4F82AE063
:1005A00030E0853739F1952D997FD92E8F3601F1BD
:1005B00048F48835A9F0F701868197812B96E2E10E
:1005C0000C940104803749F08837A9F7D4FE02C0A3
:1005D0006894D2F820E130E00DC06894D4F8F6CFEA
:1005E00054FE03C0E92FE660DE2E20E132E002C0B7
:1005F00028E030E0F801D7FE0DC061917191819142
:1006000091918F01A5010E948703C82ECA18E89412
:10061000D7F86BCF6191719190E080E0F2CF52FCFE
:1006200002C083947ECF839483947BCF852D86787C
:1006300009F477CFF6CFB70180E290E00E9457032C
:1006400083948414C0F3312C79CF342C381884145B
:1006500008F474CFF8CF852D867809F481CF8BE22A
:1006600051FE80E257FC8DE2B70190E077CFB701F1
:1006700080E390E00E9457039A9472CF8FEF9FEF30
:100680009DCFFC010590615070400110D8F7809516
:1006900090958E0F9F1F0895FC016150704001904E
:1006A0000110D8F7809590958E0F9F1F08950F9396
:1006B0001F93CF93DF93182F092FEB018B8181FDBF
:1006C00009C01FEF0FEF812F902FDF91CF911F9166
:1006D0000F91089582FF14C02E813F818C819D81EE
:1006E000281739073CF4E881F981CF0101969983F5
:1006F000888310838E819F8101969F838E83E3CFB1
:10070000E885F985812F0995892BA1F3DACFFA01C4
:10071000AA27283051F1203181F1E8946F936E7F40
:100720006E5F7F4F8F4F9F4FAF4FB1E03ED0B4E031
:100730003CD0670F781F891F9A1FA11D680F791F72
:100740008A1F911DA11D6A0F711D811D911DA11D83
:1007500020D009F468943F912AE0269F1124301993
:10076000305D3193DEF6CF010895462F4770405D2E
:100770004193B3E00FD0C9F7F6CF462F4F70405DDD
:100780004A3318F0495D31FD4052419302D0A9F738
:10079000EACFB4E0A6959795879577956795BA9532
:1007A000C9F700976105710508959B01AC010A2EF8
:1007B00006945795479537952795BA95C9F7620FCF
:1007C000731F841F951FA01D08952F923F924F9273
:1007D0005F926F927F928F929F92AF92BF92CF92D1
:1007E000DF92EF92FF920F931F93CF93DF93CDB7DA
:1007F000DEB7CA1BDB0B0FB6F894DEBF0FBECDBF52
:1008000009942A88398848885F846E847D848C8422
:100810009B84AA84B984C884DF80EE80FD800C812B
:100820001B81AA81B981CE0FD11D0FB6F894DEBF0E
:0C0830000FBECDBFED010895F894FFCF7E
:10083C006164632076616C3A202530346400616415
:0E084C006320696E7472202825303264290002
:00000001FF
