:100000000C942A000C9464000C943C000C946A003C
:100010000C943C000C943C000C943C000C943C0070
:100020000C943C000C943C000C943C000C943C0060
:100030000C943C000C943C000C943C000C943C0050
:100040000C943C000C943C000C943C000C943C0040
:100050000C943C0011241FBECFE5D8E0DEBFCDBF1D
:1000600020E0A0E6B0E001C01D92A236B207E1F7A1
:100070000E9470000C948E000C9400008B9A939850
:100080008A98929A85B7826085BF8BB780648BBF50
:10009000BA98929A84B7806484BF8BB780628BBF12
:1000A00078940895815008F408952FEF39E698E187
:1000B000215030409040E1F700C00000F3CF939A08
:1000C0000E945200939808958F9381E0809361007D
:1000D0008F9118958F9381E0809360008F91189590
:1000E0000E943E0080916100882329F081E00E94F7
:1000F0005F001092610080916000882329F081E008
:100100000E945F00109260002FEF81EE94E021507A
:1001100080409040E1F700C00000E4CFF894FFCFAA
:00000001FF
