:100000000C942A000C9470000C943C000C94760024
:100010000C943C000C943C000C943C000C943C0070
:100020000C943C000C943C000C943C000C943C0060
:100030000C943C000C943C000C943C000C943C0050
:100040000C943C000C943C000C943C000C943C0040
:100050000C943C0011241FBECFE5D8E0DEBFCDBF1D
:1000600020E0A0E6B0E001C01D92A236B207E1F7A1
:100070000E947C000C949A000C9400008B9A939838
:100080008A98929A85B7826085BF8BB780648BBF50
:10009000BA98929A84B7806484BF8BB780628BBF12
:1000A00078940895815008F408952FE738E391E09B
:1000B000215030409040E1F700C00000F3CF1F9383
:1000C000CF93DF93182FC2E3D0E0939A812F0E9441
:1000D000520093982197C9F7DF91CF911F9108950E
:1000E0008F9381E0809361008F9118958F9381E0C9
:1000F000809360008F9118950E943E00809161006E
:10010000882329F08AE00E945F00109261008091AC
:100110006000882329F08AE00E945F00109260004E
:100120002FEF81EE94E0215080409040E1F700C035
:080130000000E4CFF894FFCFBA
:00000001FF
