:100000000C942A000C9434000C9434000C943400AA
:100010000C9434000C9434000C9434000C94340090
:100020000C9434000C9434000C9434000C94340080
:100030000C9434000C9434000C9434000C94340070
:100040000C9434000C9434000C9434000C94340060
:100050000C94340011241FBECFE5D8E0DEBFCDBF25
:100060000E943C000C9456000C9400008FEF81BB62
:1000700013BC81E785BD08950E94360090E080E0C2
:100080008F3F910550F083BDEFE3FCE93197F1F725
:1000900000C000000197B9F7F3CF83BDEFE3FCE99F
:1000A0003197F1F700C000000196EACFF894FFCF36
:00000001FF
