:020000020000FC
:100000000C942A000C9443000C9443000C9443007D
:100010000C9443000C9443000C9443000C94430054
:100020000C9443000C9443000C9443000C94430044
:100030000C9443000C9443000C9443000C94430034
:100040000C9443000C9443000C9443000C94430024
:100050000C94430007E115E0002E010E03E213E2C9
:10006000002E011A0FE00093600004E0009361008D
:100070004090600050906100450C40926200459CA9
:0800800040926300FFCF1895C8
:00000001FF
