:020000020000FC
:060A00000A141E2832005A
:0A0C00000B00160021002C00370045
:100000000C942A000C9440000C9440000C94400086
:100010000C9440000C9440000C9440000C94400060
:100020000C9440000C9440000C9440000C94400050
:100030000C9440000C9440000C9440000C94400040
:100040000C9440000C9440000C9440000C94400030
:100050000C9440000024E0E0FAE01127153020F471
:100060001590010C1395FACF0024E0E0FCE0112775
:10007000153028F41590010CE3951395F9CFFFCFB7
:020080001895D1
:00000001FF
