:020000020000FC
:100000000C942A000C9456000C9456000C94560044
:100010000C9456000C9456000C9456000C94560008
:100020000C9456000C9456000C9456000C945600F8
:100030000C9456000C9456000C9456000C945600E8
:100040000C9456000C9456000C9456000C945600D8
:100050000C9456000FE50DBF08E00EBF0AE00F93A9
:1000600004E10F930EE10F932F901F900F900BE080
:10007000002E06E1102E01E2202E0E944800002DE5
:100080000FEF04BB15E515BB109505D0FCCFFFCFD6
:10009000010C020C089560E15AEF4AEF00004A9506
:0E00A000E9F75A95D1F76A95B9F708951895C2
:00000001FF
