:100000000C942A000C9434000C9434000C943400AA
:100010000C9434000C9434000C9434000C94340090
:100020000C9434000C9434000C9434000C94340080
:100030000C9434000C9434000C9434000C94340070
:100040000C9434000C9434000C9434000C94340060
:100050000C94340011241FBECFE5D8E0DEBFCDBF25
:100060000E9436000C9445000C9400008FEF84BB76
:100070008AEA85BB2FEF39E698E121503040904065
:0E008000E1F700C000008095F4CFF894FFCFA8
:00000001FF
