:100000000C942A000C943F000C943F000C943F0089
:100010000C943F000C943F000C943F000C943F0064
:100020000C943F000C943F000C943F000C943F0054
:100030000C943F000C943F000C943F000C943F0044
:100040000C943F000C943F000C943F000C943F0034
:100050000C943F0011241FBECFE5D8E0DEBFCDBF1A
:1000600010E0A0E6B0E0E6E9F1E002C005900D92F4
:10007000AE37B107D9F70E94BC000C94C9000C94AC
:10008000000081110EC095980000949888B38F707D
:1000900088BB88B36F70682B68BB969A00009698EF
:1000A0000895959AF1CFCF93DF93D82FC62F8FE67F
:1000B00097E10197F1F700C00000607F8D2F0E944B
:1000C00041006C2F6295607F8D2F0E944100DF916F
:1000D000CF91089587B3806F87BB88B38F7088BB3B
:1000E00081B3806781BB82B38F7882BB2FEF80E7BB
:1000F00092E0215080409040E1F700C0000068E2AB
:1001000080E00E9453006CE080E00E94530061E0B8
:1001100080E00E9453000895823068F4603158F402
:10012000811106C060580E94530081E090E008955C
:10013000605480E0F8CF90E080E00895682F81E07F
:100140000E94530008950F931F93CF93DF938B0169
:1001500060E00E948C00E8010F5E1F4F89918823A8
:1001600019F0C017D10729F4DF91CF911F910F919A
:1001700008950E949E00F2CF0E946A0060E670E03F
:1001800080E00E94A30061E770E081E00E94A3008C
:06019000FFCFF894FFCF41
:1001960057686174277320757020422A2A74636831
:0E01A60000472A2A6E64204D617272610000CB
:00000001FF
