:020000020000FC
:100000000C942A000C944E000C944E000C944E005C
:100010000C944E000C944E000C944E000C944E0028
:100020000C944E000C944E000C944E000C944E0018
:100030000C944E000C944E000C944E000C944E0008
:100040000C944E000C944E000C944E000C944E00F8
:100050000C944E000AE00093600004E100936100FC
:10006000A0E6B0E00C90C1E6D0E01880010CE2E61A
:10007000F0E000820AE01AE0A3E6B0E02227253093
:1000800020F41D93100F2395FACF0024222725304A
:0E00900020F41E90010C2395FACFFFCF189597
:00000001FF
