:020000020000FC
:100000000C942A000C943F000C943F000C943F0089
:100010000C943F000C943F000C943F000C943E0065
:100020000C943F000C943F000C943F000C943F0054
:100030000C943F000C943F000C943F000C943F0044
:100040000C943F000C943F000C943F000C943F0034
:100050000C943F000FE50DBF08E00EBF03D08D9A52
:100060009598FFCF01E40ABD0FE00BBD00E109BF89
:1000700000E40FBD78940DE00EBD08951895189515
:00000001FF
