:100000000C942A000C9434000C9434000C943400AA
:100010000C9434000C9434000C9434000C94340090
:100020000C9434000C9434000C9434000C94340080
:100030000C9434000C9434000C9434000C94340070
:100040000C9434000C9434000C9434000C94340060
:100050000C94340011241FBECFE5D8E0DEBFCDBF25
:100060000E944F000C9468000C9400009C01A0E4D6
:10007000BFE10E9459002AE096958795779567958C
:100080002A95D1F7609570957DBD6CBD1FBC85E04C
:100090008EBD08B602FEFDCF84E088BF08958FEFC5
:1000A00084BBCFEFC5BB8CE291E00E943600C095C7
:1000B000F9CFA29FB001B39FC001A39F700D811D16
:1000C0001124911DB29F700D811D1124911D089561
:0400D000F894FFCFD2
:00000001FF
